{
  "_format": "hh-sol-artifact-1",
  "contractName": "BeeWharf",
  "sourceName": "contracts/BeeWharf.sol",
  "abi": [
    {
      "inputs": [],
      "stateMutability": "nonpayable",
      "type": "constructor"
    },
    {
      "anonymous": false,
      "inputs": [
        {
          "indexed": true,
          "internalType": "address",
          "name": "previousOwner",
          "type": "address"
        },
        {
          "indexed": true,
          "internalType": "address",
          "name": "newOwner",
          "type": "address"
        }
      ],
      "name": "OwnershipTransferred",
      "type": "event"
    },
    {
      "anonymous": false,
      "inputs": [
        {
          "indexed": true,
          "internalType": "address",
          "name": "from",
          "type": "address"
        },
        {
          "indexed": false,
          "internalType": "uint256",
          "name": "amount",
          "type": "uint256"
        },
        {
          "indexed": false,
          "internalType": "string",
          "name": "orderId",
          "type": "string"
        },
        {
          "indexed": true,
          "internalType": "address",
          "name": "tokenAddress",
          "type": "address"
        }
      ],
      "name": "PayERC20",
      "type": "event"
    },
    {
      "anonymous": false,
      "inputs": [
        {
          "indexed": true,
          "internalType": "address",
          "name": "to",
          "type": "address"
        },
        {
          "indexed": false,
          "internalType": "uint256",
          "name": "amount",
          "type": "uint256"
        },
        {
          "indexed": false,
          "internalType": "string",
          "name": "billId",
          "type": "string"
        },
        {
          "indexed": true,
          "internalType": "address",
          "name": "tokenAddress",
          "type": "address"
        }
      ],
      "name": "RefundERC20",
      "type": "event"
    },
    {
      "anonymous": false,
      "inputs": [
        {
          "indexed": true,
          "internalType": "address",
          "name": "to",
          "type": "address"
        },
        {
          "indexed": false,
          "internalType": "uint256",
          "name": "amount",
          "type": "uint256"
        },
        {
          "indexed": false,
          "internalType": "string",
          "name": "billId",
          "type": "string"
        },
        {
          "indexed": true,
          "internalType": "address",
          "name": "tokenAddress",
          "type": "address"
        }
      ],
      "name": "WithdrawERC20",
      "type": "event"
    },
    {
      "inputs": [
        {
          "internalType": "address",
          "name": "tokenAddress",
          "type": "address"
        }
      ],
      "name": "addNewSupportToken",
      "outputs": [],
      "stateMutability": "nonpayable",
      "type": "function"
    },
    {
      "inputs": [
        {
          "internalType": "address",
          "name": "tokenAddress",
          "type": "address"
        }
      ],
      "name": "balanceOf",
      "outputs": [
        {
          "internalType": "uint256",
          "name": "",
          "type": "uint256"
        }
      ],
      "stateMutability": "view",
      "type": "function"
    },
    {
      "inputs": [],
      "name": "owner",
      "outputs": [
        {
          "internalType": "address",
          "name": "",
          "type": "address"
        }
      ],
      "stateMutability": "view",
      "type": "function"
    },
    {
      "inputs": [
        {
          "internalType": "uint256",
          "name": "amount",
          "type": "uint256"
        },
        {
          "internalType": "string",
          "name": "orderId",
          "type": "string"
        },
        {
          "internalType": "address",
          "name": "tokenAddress",
          "type": "address"
        }
      ],
      "name": "payERC20",
      "outputs": [],
      "stateMutability": "nonpayable",
      "type": "function"
    },
    {
      "inputs": [
        {
          "internalType": "address",
          "name": "from",
          "type": "address"
        },
        {
          "internalType": "uint256",
          "name": "amount",
          "type": "uint256"
        },
        {
          "internalType": "string",
          "name": "orderId",
          "type": "string"
        },
        {
          "internalType": "address",
          "name": "tokenAddress",
          "type": "address"
        }
      ],
      "name": "payERC20From",
      "outputs": [],
      "stateMutability": "nonpayable",
      "type": "function"
    },
    {
      "inputs": [
        {
          "internalType": "address",
          "name": "to",
          "type": "address"
        },
        {
          "internalType": "uint256",
          "name": "amount",
          "type": "uint256"
        },
        {
          "internalType": "string",
          "name": "billId",
          "type": "string"
        },
        {
          "internalType": "address",
          "name": "tokenAddress",
          "type": "address"
        }
      ],
      "name": "refundERC20",
      "outputs": [],
      "stateMutability": "nonpayable",
      "type": "function"
    },
    {
      "inputs": [
        {
          "internalType": "address",
          "name": "from",
          "type": "address"
        },
        {
          "internalType": "address",
          "name": "to",
          "type": "address"
        },
        {
          "internalType": "uint256",
          "name": "amount",
          "type": "uint256"
        },
        {
          "internalType": "string",
          "name": "billId",
          "type": "string"
        },
        {
          "internalType": "address",
          "name": "tokenAddress",
          "type": "address"
        }
      ],
      "name": "refundERC20From",
      "outputs": [],
      "stateMutability": "nonpayable",
      "type": "function"
    },
    {
      "inputs": [],
      "name": "renounceOwnership",
      "outputs": [],
      "stateMutability": "nonpayable",
      "type": "function"
    },
    {
      "inputs": [
        {
          "internalType": "address",
          "name": "newOwner",
          "type": "address"
        }
      ],
      "name": "transferOwnership",
      "outputs": [],
      "stateMutability": "nonpayable",
      "type": "function"
    },
    {
      "inputs": [
        {
          "internalType": "uint256",
          "name": "amount",
          "type": "uint256"
        },
        {
          "internalType": "string",
          "name": "billId",
          "type": "string"
        },
        {
          "internalType": "address",
          "name": "tokenAddress",
          "type": "address"
        }
      ],
      "name": "withdrawERC20",
      "outputs": [],
      "stateMutability": "nonpayable",
      "type": "function"
    }
  ],
  "bytecode": "0x608060405234801561001057600080fd5b5061002d61002261010860201b60201c565b61011060201b60201c565b600180600073dac17f958d2ee523a2206206994597c13d831ec773ffffffffffffffffffffffffffffffffffffffff1673ffffffffffffffffffffffffffffffffffffffff16815260200190815260200160002060006101000a81548160ff021916908315150217905550600180600073a0b86991c6218b36c1d19d4a2e9eb0ce3606eb4873ffffffffffffffffffffffffffffffffffffffff1673ffffffffffffffffffffffffffffffffffffffff16815260200190815260200160002060006101000a81548160ff0219169083151502179055506101d4565b600033905090565b60008060009054906101000a900473ffffffffffffffffffffffffffffffffffffffff169050816000806101000a81548173ffffffffffffffffffffffffffffffffffffffff021916908373ffffffffffffffffffffffffffffffffffffffff1602179055508173ffffffffffffffffffffffffffffffffffffffff168173ffffffffffffffffffffffffffffffffffffffff167f8be0079c531659141344cd1fd0a4f28419497f9722a3daafe3b4186f6b6457e060405160405180910390a35050565b611632806101e36000396000f3fe608060405234801561001057600080fd5b506004361061009e5760003560e01c8063793191f111610066578063793191f1146101315780638da5cb5b1461014d578063b30917ad1461016b578063cc86a50314610187578063f2fde38b146101a35761009e565b806358598dad146100a357806370a08231146100bf57806370d47134146100ef578063711e0ee71461010b578063715018a614610127575b600080fd5b6100bd60048036038101906100b89190610e5f565b6101bf565b005b6100d960048036038101906100d49190610ed3565b6103e8565b6040516100e69190610f0f565b60405180910390f35b61010960048036038101906101049190610f2a565b610484565b005b61012560048036038101906101209190610e5f565b610508565b005b61012f610581565b005b61014b60048036038101906101469190610f2a565b610595565b005b6101556107f3565b6040516101629190610fc1565b60405180910390f35b61018560048036038101906101809190610ed3565b61081c565b005b6101a1600480360381019061019c9190610fdc565b61089e565b005b6101bd60048036038101906101b89190610ed3565b610b39565b005b6101c7610bbc565b6101db816001610c3a90919063ffffffff16565b61021a576040517f08c379a0000000000000000000000000000000000000000000000000000000008152600401610211906110d3565b60405180910390fd5b83600260008373ffffffffffffffffffffffffffffffffffffffff1673ffffffffffffffffffffffffffffffffffffffff16815260200190815260200160002054101561029c576040517f08c379a00000000000000000000000000000000000000000000000000000000081526004016102939061113f565b60405180910390fd5b8073ffffffffffffffffffffffffffffffffffffffff1663a9059cbb33866040518363ffffffff1660e01b81526004016102d792919061115f565b6020604051808303816000875af11580156102f6573d6000803e3d6000fd5b505050506040513d601f19601f8201168201806040525081019061031a91906111c0565b61032357600080fd5b83600260008373ffffffffffffffffffffffffffffffffffffffff1673ffffffffffffffffffffffffffffffffffffffff1681526020019081526020016000206000828254610372919061121c565b925050819055508073ffffffffffffffffffffffffffffffffffffffff163373ffffffffffffffffffffffffffffffffffffffff167f3822da7c1846353da157717dd7e95db54b4ffe105a04f5042cdf2cb1adadb2838686866040516103da9392919061129d565b60405180910390a350505050565b60006103fe826001610c3a90919063ffffffff16565b61043d576040517f08c379a00000000000000000000000000000000000000000000000000000000081526004016104349061131b565b60405180910390fd5b600260008373ffffffffffffffffffffffffffffffffffffffff1673ffffffffffffffffffffffffffffffffffffffff168152602001908152602001600020549050919050565b61048c610bbc565b3073ffffffffffffffffffffffffffffffffffffffff1663cc86a5033087878787876040518763ffffffff1660e01b81526004016104cf9695949392919061133b565b600060405180830381600087803b1580156104e957600080fd5b505af11580156104fd573d6000803e3d6000fd5b505050505050505050565b3073ffffffffffffffffffffffffffffffffffffffff1663793191f133868686866040518663ffffffff1660e01b8152600401610549959493929190611397565b600060405180830381600087803b15801561056357600080fd5b505af1158015610577573d6000803e3d6000fd5b5050505050505050565b610589610bbc565b6105936000610c90565b565b6105a9816001610c3a90919063ffffffff16565b6105e8576040517f08c379a00000000000000000000000000000000000000000000000000000000081526004016105df9061131b565b60405180910390fd5b838173ffffffffffffffffffffffffffffffffffffffff166370a08231876040518263ffffffff1660e01b81526004016106229190610fc1565b602060405180830381865afa15801561063f573d6000803e3d6000fd5b505050506040513d601f19601f8201168201806040525081019061066391906113fa565b10156106a4576040517f08c379a000000000000000000000000000000000000000000000000000000000815260040161069b90611473565b60405180910390fd5b8073ffffffffffffffffffffffffffffffffffffffff166323b872dd8630876040518463ffffffff1660e01b81526004016106e193929190611493565b6020604051808303816000875af1158015610700573d6000803e3d6000fd5b505050506040513d601f19601f8201168201806040525081019061072491906111c0565b61072d57600080fd5b83600260008373ffffffffffffffffffffffffffffffffffffffff1673ffffffffffffffffffffffffffffffffffffffff168152602001908152602001600020600082825461077c91906114ca565b925050819055508073ffffffffffffffffffffffffffffffffffffffff168573ffffffffffffffffffffffffffffffffffffffff167f5813e31687b98924e93d090022c25c96ef51b871564c433d5823e936dc3b43978686866040516107e49392919061129d565b60405180910390a35050505050565b60008060009054906101000a900473ffffffffffffffffffffffffffffffffffffffff16905090565b610824610bbc565b6000151561083c826001610c3a90919063ffffffff16565b15150361089b5760018060008373ffffffffffffffffffffffffffffffffffffffff1673ffffffffffffffffffffffffffffffffffffffff16815260200190815260200160002060006101000a81548160ff0219169083151502179055505b50565b6108a6610bbc565b6108ba816001610c3a90919063ffffffff16565b6108f9576040517f08c379a00000000000000000000000000000000000000000000000000000000081526004016108f09061131b565b60405180910390fd5b838173ffffffffffffffffffffffffffffffffffffffff166370a08231886040518263ffffffff1660e01b81526004016109339190610fc1565b602060405180830381865afa158015610950573d6000803e3d6000fd5b505050506040513d601f19601f8201168201806040525081019061097491906113fa565b10156109b5576040517f08c379a00000000000000000000000000000000000000000000000000000000081526004016109ac90611473565b60405180910390fd5b8073ffffffffffffffffffffffffffffffffffffffff166323b872dd8787876040518463ffffffff1660e01b81526004016109f293929190611493565b6020604051808303816000875af1158015610a11573d6000803e3d6000fd5b505050506040513d601f19601f82011682018060405250810190610a3591906111c0565b610a3e57600080fd5b3073ffffffffffffffffffffffffffffffffffffffff168673ffffffffffffffffffffffffffffffffffffffff1603610ac85783600260008373ffffffffffffffffffffffffffffffffffffffff1673ffffffffffffffffffffffffffffffffffffffff1681526020019081526020016000206000828254610ac0919061121c565b925050819055505b8073ffffffffffffffffffffffffffffffffffffffff168573ffffffffffffffffffffffffffffffffffffffff167f6b4b6b0c19db95f8115cbbc9222c0904280ced3214cae0a128151210a5b6ec30868686604051610b299392919061129d565b60405180910390a3505050505050565b610b41610bbc565b600073ffffffffffffffffffffffffffffffffffffffff168173ffffffffffffffffffffffffffffffffffffffff1603610bb0576040517f08c379a0000000000000000000000000000000000000000000000000000000008152600401610ba790611570565b60405180910390fd5b610bb981610c90565b50565b610bc4610d54565b73ffffffffffffffffffffffffffffffffffffffff16610be26107f3565b73ffffffffffffffffffffffffffffffffffffffff1614610c38576040517f08c379a0000000000000000000000000000000000000000000000000000000008152600401610c2f906115dc565b60405180910390fd5b565b60008260008373ffffffffffffffffffffffffffffffffffffffff1673ffffffffffffffffffffffffffffffffffffffff16815260200190815260200160002060009054906101000a900460ff16905092915050565b60008060009054906101000a900473ffffffffffffffffffffffffffffffffffffffff169050816000806101000a81548173ffffffffffffffffffffffffffffffffffffffff021916908373ffffffffffffffffffffffffffffffffffffffff1602179055508173ffffffffffffffffffffffffffffffffffffffff168173ffffffffffffffffffffffffffffffffffffffff167f8be0079c531659141344cd1fd0a4f28419497f9722a3daafe3b4186f6b6457e060405160405180910390a35050565b600033905090565b600080fd5b600080fd5b6000819050919050565b610d7981610d66565b8114610d8457600080fd5b50565b600081359050610d9681610d70565b92915050565b600080fd5b600080fd5b600080fd5b60008083601f840112610dc157610dc0610d9c565b5b8235905067ffffffffffffffff811115610dde57610ddd610da1565b5b602083019150836001820283011115610dfa57610df9610da6565b5b9250929050565b600073ffffffffffffffffffffffffffffffffffffffff82169050919050565b6000610e2c82610e01565b9050919050565b610e3c81610e21565b8114610e4757600080fd5b50565b600081359050610e5981610e33565b92915050565b60008060008060608587031215610e7957610e78610d5c565b5b6000610e8787828801610d87565b945050602085013567ffffffffffffffff811115610ea857610ea7610d61565b5b610eb487828801610dab565b93509350506040610ec787828801610e4a565b91505092959194509250565b600060208284031215610ee957610ee8610d5c565b5b6000610ef784828501610e4a565b91505092915050565b610f0981610d66565b82525050565b6000602082019050610f246000830184610f00565b92915050565b600080600080600060808688031215610f4657610f45610d5c565b5b6000610f5488828901610e4a565b9550506020610f6588828901610d87565b945050604086013567ffffffffffffffff811115610f8657610f85610d61565b5b610f9288828901610dab565b93509350506060610fa588828901610e4a565b9150509295509295909350565b610fbb81610e21565b82525050565b6000602082019050610fd66000830184610fb2565b92915050565b60008060008060008060a08789031215610ff957610ff8610d5c565b5b600061100789828a01610e4a565b965050602061101889828a01610e4a565b955050604061102989828a01610d87565b945050606087013567ffffffffffffffff81111561104a57611049610d61565b5b61105689828a01610dab565b9350935050608061106989828a01610e4a565b9150509295509295509295565b600082825260208201905092915050565b7f4e6f7420737570706f7274656420746f6b656e00000000000000000000000000600082015250565b60006110bd601383611076565b91506110c882611087565b602082019050919050565b600060208201905081810360008301526110ec816110b0565b9050919050565b7f496e73756666696369656e742066756e64730000000000000000000000000000600082015250565b6000611129601283611076565b9150611134826110f3565b602082019050919050565b600060208201905081810360008301526111588161111c565b9050919050565b60006040820190506111746000830185610fb2565b6111816020830184610f00565b9392505050565b60008115159050919050565b61119d81611188565b81146111a857600080fd5b50565b6000815190506111ba81611194565b92915050565b6000602082840312156111d6576111d5610d5c565b5b60006111e4848285016111ab565b91505092915050565b7f4e487b7100000000000000000000000000000000000000000000000000000000600052601160045260246000fd5b600061122782610d66565b915061123283610d66565b925082820390508181111561124a576112496111ed565b5b92915050565b82818337600083830152505050565b6000601f19601f8301169050919050565b600061127c8385611076565b9350611289838584611250565b6112928361125f565b840190509392505050565b60006040820190506112b26000830186610f00565b81810360208301526112c5818486611270565b9050949350505050565b7f556e73757270706f7274656420746f6b656e2100000000000000000000000000600082015250565b6000611305601383611076565b9150611310826112cf565b602082019050919050565b60006020820190508181036000830152611334816112f8565b9050919050565b600060a0820190506113506000830189610fb2565b61135d6020830188610fb2565b61136a6040830187610f00565b818103606083015261137d818587611270565b905061138c6080830184610fb2565b979650505050505050565b60006080820190506113ac6000830188610fb2565b6113b96020830187610f00565b81810360408301526113cc818587611270565b90506113db6060830184610fb2565b9695505050505050565b6000815190506113f481610d70565b92915050565b6000602082840312156114105761140f610d5c565b5b600061141e848285016113e5565b91505092915050565b7f496e73756666696369656e742062616c616e63652066756e6473000000000000600082015250565b600061145d601a83611076565b915061146882611427565b602082019050919050565b6000602082019050818103600083015261148c81611450565b9050919050565b60006060820190506114a86000830186610fb2565b6114b56020830185610fb2565b6114c26040830184610f00565b949350505050565b60006114d582610d66565b91506114e083610d66565b92508282019050808211156114f8576114f76111ed565b5b92915050565b7f4f776e61626c653a206e6577206f776e657220697320746865207a65726f206160008201527f6464726573730000000000000000000000000000000000000000000000000000602082015250565b600061155a602683611076565b9150611565826114fe565b604082019050919050565b600060208201905081810360008301526115898161154d565b9050919050565b7f4f776e61626c653a2063616c6c6572206973206e6f7420746865206f776e6572600082015250565b60006115c6602083611076565b91506115d182611590565b602082019050919050565b600060208201905081810360008301526115f5816115b9565b905091905056fea2646970667358221220da0edb4cec72f088547bbbb8f98a9c80d89b49cc8fc612819278f5f266005cbf64736f6c63430008110033",
  "linkReferences": {},
  "deployedLinkReferences": {}
}